{
  "_format": "hh-sol-artifact-1",
  "contractName": "HashedTimeLockContract",
  "sourceName": "contracts/HashedTimeLockContract.sol",
  "abi": [
    {
      "anonymous": false,
      "inputs": [
        {
          "indexed": false,
          "internalType": "uint256",
          "name": "inputAmount",
          "type": "uint256"
        },
        {
          "indexed": false,
          "internalType": "uint256",
          "name": "outputAmount",
          "type": "uint256"
        },
        {
          "indexed": false,
          "internalType": "uint256",
          "name": "expiration",
          "type": "uint256"
        },
        {
          "indexed": false,
          "internalType": "bytes32",
          "name": "id",
          "type": "bytes32"
        },
        {
          "indexed": false,
          "internalType": "bytes32",
          "name": "hashLock",
          "type": "bytes32"
        },
        {
          "indexed": true,
          "internalType": "address",
          "name": "tokenAddress",
          "type": "address"
        },
        {
          "indexed": true,
          "internalType": "address",
          "name": "sender",
          "type": "address"
        },
        {
          "indexed": true,
          "internalType": "address",
          "name": "receiver",
          "type": "address"
        },
        {
          "indexed": false,
          "internalType": "string",
          "name": "outputNetwork",
          "type": "string"
        },
        {
          "indexed": false,
          "internalType": "string",
          "name": "outputAddress",
          "type": "string"
        }
      ],
      "name": "NewContract",
      "type": "event"
    },
    {
      "anonymous": false,
      "inputs": [
        {
          "indexed": false,
          "internalType": "bytes32",
          "name": "id",
          "type": "bytes32"
        },
        {
          "indexed": false,
          "internalType": "bytes32",
          "name": "hashLock",
          "type": "bytes32"
        },
        {
          "indexed": true,
          "internalType": "address",
          "name": "tokenAddress",
          "type": "address"
        },
        {
          "indexed": true,
          "internalType": "address",
          "name": "sender",
          "type": "address"
        },
        {
          "indexed": true,
          "internalType": "address",
          "name": "receiver",
          "type": "address"
        }
      ],
      "name": "Refund",
      "type": "event"
    },
    {
      "anonymous": false,
      "inputs": [
        {
          "indexed": false,
          "internalType": "bytes32",
          "name": "id",
          "type": "bytes32"
        },
        {
          "indexed": false,
          "internalType": "bytes32",
          "name": "secret",
          "type": "bytes32"
        },
        {
          "indexed": false,
          "internalType": "bytes32",
          "name": "hashLock",
          "type": "bytes32"
        },
        {
          "indexed": true,
          "internalType": "address",
          "name": "tokenAddress",
          "type": "address"
        },
        {
          "indexed": true,
          "internalType": "address",
          "name": "sender",
          "type": "address"
        },
        {
          "indexed": true,
          "internalType": "address",
          "name": "receiver",
          "type": "address"
        }
      ],
      "name": "Withdraw",
      "type": "event"
    },
    {
      "inputs": [],
      "name": "ACTIVE",
      "outputs": [
        {
          "internalType": "uint256",
          "name": "",
          "type": "uint256"
        }
      ],
      "stateMutability": "view",
      "type": "function"
    },
    {
      "inputs": [],
      "name": "EXPIRED",
      "outputs": [
        {
          "internalType": "uint256",
          "name": "",
          "type": "uint256"
        }
      ],
      "stateMutability": "view",
      "type": "function"
    },
    {
      "inputs": [],
      "name": "INVALID",
      "outputs": [
        {
          "internalType": "uint256",
          "name": "",
          "type": "uint256"
        }
      ],
      "stateMutability": "view",
      "type": "function"
    },
    {
      "inputs": [],
      "name": "REFUNDED",
      "outputs": [
        {
          "internalType": "uint256",
          "name": "",
          "type": "uint256"
        }
      ],
      "stateMutability": "view",
      "type": "function"
    },
    {
      "inputs": [],
      "name": "WITHDRAWN",
      "outputs": [
        {
          "internalType": "uint256",
          "name": "",
          "type": "uint256"
        }
      ],
      "stateMutability": "view",
      "type": "function"
    },
    {
      "inputs": [
        {
          "internalType": "bytes32",
          "name": "",
          "type": "bytes32"
        }
      ],
      "name": "contracts",
      "outputs": [
        {
          "internalType": "uint256",
          "name": "inputAmount",
          "type": "uint256"
        },
        {
          "internalType": "uint256",
          "name": "outputAmount",
          "type": "uint256"
        },
        {
          "internalType": "uint256",
          "name": "expiration",
          "type": "uint256"
        },
        {
          "internalType": "uint256",
          "name": "status",
          "type": "uint256"
        },
        {
          "internalType": "bytes32",
          "name": "hashLock",
          "type": "bytes32"
        },
        {
          "internalType": "address",
          "name": "tokenAddress",
          "type": "address"
        },
        {
          "internalType": "address",
          "name": "sender",
          "type": "address"
        },
        {
          "internalType": "address",
          "name": "receiver",
          "type": "address"
        },
        {
          "internalType": "string",
          "name": "outputNetwork",
          "type": "string"
        },
        {
          "internalType": "string",
          "name": "outputAddress",
          "type": "string"
        }
      ],
      "stateMutability": "view",
      "type": "function"
    },
    {
      "inputs": [
        {
          "internalType": "bytes32",
          "name": "id",
          "type": "bytes32"
        }
      ],
      "name": "getSingleStatus",
      "outputs": [
        {
          "internalType": "uint256",
          "name": "result",
          "type": "uint256"
        }
      ],
      "stateMutability": "view",
      "type": "function"
    },
    {
      "inputs": [
        {
          "internalType": "bytes32[]",
          "name": "ids",
          "type": "bytes32[]"
        }
      ],
      "name": "getStatus",
      "outputs": [
        {
          "internalType": "uint256[]",
          "name": "",
          "type": "uint256[]"
        }
      ],
      "stateMutability": "view",
      "type": "function"
    },
    {
      "inputs": [
        {
          "internalType": "uint256",
          "name": "inputAmount",
          "type": "uint256"
        },
        {
          "internalType": "uint256",
          "name": "outputAmount",
          "type": "uint256"
        },
        {
          "internalType": "uint256",
          "name": "expiration",
          "type": "uint256"
        },
        {
          "internalType": "bytes32",
          "name": "hashLock",
          "type": "bytes32"
        },
        {
          "internalType": "address",
          "name": "tokenAddress",
          "type": "address"
        },
        {
          "internalType": "address",
          "name": "receiver",
          "type": "address"
        },
        {
          "internalType": "string",
          "name": "outputNetwork",
          "type": "string"
        },
        {
          "internalType": "string",
          "name": "outputAddress",
          "type": "string"
        }
      ],
      "name": "newContract",
      "outputs": [],
      "stateMutability": "nonpayable",
      "type": "function"
    },
    {
      "inputs": [
        {
          "internalType": "bytes32",
          "name": "id",
          "type": "bytes32"
        }
      ],
      "name": "refund",
      "outputs": [],
      "stateMutability": "nonpayable",
      "type": "function"
    },
    {
      "inputs": [
        {
          "internalType": "bytes32",
          "name": "id",
          "type": "bytes32"
        },
        {
          "internalType": "bytes32",
          "name": "secret",
          "type": "bytes32"
        }
      ],
      "name": "withdraw",
      "outputs": [],
      "stateMutability": "nonpayable",
      "type": "function"
    }
  ],
  "bytecode": "0x608060405234801561001057600080fd5b50612006806100206000396000f3fe608060405234801561001057600080fd5b50600436106100a95760003560e01c806394e15c8f1161007157806394e15c8f14610152578063af78feef14610170578063c90bd0471461018e578063d2fd8b76146101ac578063ec56a373146101c8578063fbdf3b4314610201576100a9565b80632f21a663146100ae578063414ac85b146100de57806363615149146100fc5780637249fbb6146101185780637fcce2a914610134575b600080fd5b6100c860048036038101906100c391906112e5565b610231565b6040516100d591906113f6565b60405180910390f35b6100e66102ec565b6040516100f39190611427565b60405180910390f35b61011660048036038101906101119190611442565b6102f1565b005b610132600480360381019061012d9190611482565b6105ca565b005b61013c610835565b6040516101499190611427565b60405180910390f35b61015a61083a565b6040516101679190611427565b60405180910390f35b61017861083f565b6040516101859190611427565b60405180910390f35b610196610844565b6040516101a39190611427565b60405180910390f35b6101c660048036038101906101c19190611594565b610849565b005b6101e260048036038101906101dd9190611482565b610cd0565b6040516101f89a99989796959493929190611728565b60405180910390f35b61021b60048036038101906102169190611482565b610e94565b6040516102289190611427565b60405180910390f35b60606000825167ffffffffffffffff8111156102505761024f61116c565b5b60405190808252806020026020018201604052801561027e5781602001602082028036833780820191505090505b50905060005b83518110156102e2576102b08482815181106102a3576102a26117d2565b5b6020026020010151610e94565b8282815181106102c3576102c26117d2565b5b60200260200101818152505080806102da90611830565b915050610284565b5080915050919050565b600481565b60008060008481526020019081526020016000209050600181600301541461034e576040517f08c379a0000000000000000000000000000000000000000000000000000000008152600401610345906118c4565b60405180910390fd5b42816002015411610394576040517f08c379a000000000000000000000000000000000000000000000000000000000815260040161038b90611930565b60405180910390fd5b816040516020016103a59190611950565b60405160208183030381529060405280519060200120816004015414610400576040517f08c379a00000000000000000000000000000000000000000000000000000000081526004016103f7906119b7565b60405180910390fd5b600381600301819055508060050160009054906101000a900473ffffffffffffffffffffffffffffffffffffffff1673ffffffffffffffffffffffffffffffffffffffff1663a9059cbb8260070160009054906101000a900473ffffffffffffffffffffffffffffffffffffffff1683600001546040518363ffffffff1660e01b81526004016104919291906119d7565b6020604051808303816000875af11580156104b0573d6000803e3d6000fd5b505050506040513d601f19601f820116820180604052508101906104d49190611a38565b508060070160009054906101000a900473ffffffffffffffffffffffffffffffffffffffff1673ffffffffffffffffffffffffffffffffffffffff168160060160009054906101000a900473ffffffffffffffffffffffffffffffffffffffff1673ffffffffffffffffffffffffffffffffffffffff168260050160009054906101000a900473ffffffffffffffffffffffffffffffffffffffff1673ffffffffffffffffffffffffffffffffffffffff167fbab3eb11a71b2cd82a010d4d5b2c3df5cd25ee8c9f1a75baff879a1b87942cb8868686600401546040516105bd93929190611a65565b60405180910390a4505050565b600080600083815260200190815260200160002090506001816003015414610627576040517f08c379a000000000000000000000000000000000000000000000000000000000815260040161061e906118c4565b60405180910390fd5b428160020154111561066e576040517f08c379a000000000000000000000000000000000000000000000000000000000815260040161066590611930565b60405180910390fd5b600281600301819055508060050160009054906101000a900473ffffffffffffffffffffffffffffffffffffffff1673ffffffffffffffffffffffffffffffffffffffff1663a9059cbb8260060160009054906101000a900473ffffffffffffffffffffffffffffffffffffffff1683600001546040518363ffffffff1660e01b81526004016106ff9291906119d7565b6020604051808303816000875af115801561071e573d6000803e3d6000fd5b505050506040513d601f19601f820116820180604052508101906107429190611a38565b508060070160009054906101000a900473ffffffffffffffffffffffffffffffffffffffff1673ffffffffffffffffffffffffffffffffffffffff168160060160009054906101000a900473ffffffffffffffffffffffffffffffffffffffff1673ffffffffffffffffffffffffffffffffffffffff168260050160009054906101000a900473ffffffffffffffffffffffffffffffffffffffff1673ffffffffffffffffffffffffffffffffffffffff167f0d4cdc2fe2a785f03bf5481e13bee5cdcb7743166bcadafebfd3f09db6108117858560040154604051610829929190611a9c565b60405180910390a45050565b600081565b600281565b600381565b600181565b42881161088b576040517f08c379a000000000000000000000000000000000000000000000000000000000815260040161088290611930565b60405180910390fd5b60008a116108ce576040517f08c379a00000000000000000000000000000000000000000000000000000000081526004016108c590611b11565b60405180910390fd5b8573ffffffffffffffffffffffffffffffffffffffff166323b872dd33308d6040518463ffffffff1660e01b815260040161090b93929190611b31565b6020604051808303816000875af115801561092a573d6000803e3d6000fd5b505050506040513d601f19601f8201168201806040525081019061094e9190611a38565b50600033868c8a8c8b60405160200161096c96959493929190611b68565b604051602081830303815290604052805190602001209050600080600083815260200190815260200160002060030154146109dc576040517f08c379a00000000000000000000000000000000000000000000000000000000081526004016109d390611c15565b60405180910390fd5b6040518061014001604052808c81526020018b81526020018a8152602001600181526020018981526020018873ffffffffffffffffffffffffffffffffffffffff1681526020013373ffffffffffffffffffffffffffffffffffffffff1681526020018773ffffffffffffffffffffffffffffffffffffffff16815260200186868080601f016020809104026020016040519081016040528093929190818152602001838380828437600081840152601f19601f82011690508083019250505050505050815260200184848080601f016020809104026020016040519081016040528093929190818152602001838380828437600081840152601f19601f82011690508083019250505050505050815250600080838152602001908152602001600020600082015181600001556020820151816001015560408201518160020155606082015181600301556080820151816004015560a08201518160050160006101000a81548173ffffffffffffffffffffffffffffffffffffffff021916908373ffffffffffffffffffffffffffffffffffffffff16021790555060c08201518160060160006101000a81548173ffffffffffffffffffffffffffffffffffffffff021916908373ffffffffffffffffffffffffffffffffffffffff16021790555060e08201518160070160006101000a81548173ffffffffffffffffffffffffffffffffffffffff021916908373ffffffffffffffffffffffffffffffffffffffff160217905550610100820151816008019081610c1c9190611e41565b50610120820151816009019081610c339190611e41565b509050508573ffffffffffffffffffffffffffffffffffffffff163373ffffffffffffffffffffffffffffffffffffffff168873ffffffffffffffffffffffffffffffffffffffff167f448581ece7da63e54a320119f9f2b80c868a954c441e70c88ecdfc95919751248e8e8e878f8d8d8d8d604051610cbb99989796959493929190611f4f565b60405180910390a45050505050505050505050565b60006020528060005260406000206000915090508060000154908060010154908060020154908060030154908060040154908060050160009054906101000a900473ffffffffffffffffffffffffffffffffffffffff16908060060160009054906101000a900473ffffffffffffffffffffffffffffffffffffffff16908060070160009054906101000a900473ffffffffffffffffffffffffffffffffffffffff1690806008018054610d8390611c64565b80601f0160208091040260200160405190810160405280929190818152602001828054610daf90611c64565b8015610dfc5780601f10610dd157610100808354040283529160200191610dfc565b820191906000526020600020905b815481529060010190602001808311610ddf57829003601f168201915b505050505090806009018054610e1190611c64565b80601f0160208091040260200160405190810160405280929190818152602001828054610e3d90611c64565b8015610e8a5780601f10610e5f57610100808354040283529160200191610e8a565b820191906000526020600020905b815481529060010190602001808311610e6d57829003601f168201915b505050505090508a565b6000806000808481526020019081526020016000206040518061014001604052908160008201548152602001600182015481526020016002820154815260200160038201548152602001600482015481526020016005820160009054906101000a900473ffffffffffffffffffffffffffffffffffffffff1673ffffffffffffffffffffffffffffffffffffffff1673ffffffffffffffffffffffffffffffffffffffff1681526020016006820160009054906101000a900473ffffffffffffffffffffffffffffffffffffffff1673ffffffffffffffffffffffffffffffffffffffff1673ffffffffffffffffffffffffffffffffffffffff1681526020016007820160009054906101000a900473ffffffffffffffffffffffffffffffffffffffff1673ffffffffffffffffffffffffffffffffffffffff1673ffffffffffffffffffffffffffffffffffffffff168152602001600882018054610ff990611c64565b80601f016020809104026020016040519081016040528092919081815260200182805461102590611c64565b80156110725780601f1061104757610100808354040283529160200191611072565b820191906000526020600020905b81548152906001019060200180831161105557829003601f168201915b5050505050815260200160098201805461108b90611c64565b80601f01602080910402602001604051908101604052809291908181526020018280546110b790611c64565b80156111045780601f106110d957610100808354040283529160200191611104565b820191906000526020600020905b8154815290600101906020018083116110e757829003601f168201915b5050505050815250509050600181606001511480156111265750428160400151105b15611134576004915061113c565b806060015191505b50919050565b6000604051905090565b600080fd5b600080fd5b600080fd5b6000601f19601f8301169050919050565b7f4e487b7100000000000000000000000000000000000000000000000000000000600052604160045260246000fd5b6111a48261115b565b810181811067ffffffffffffffff821117156111c3576111c261116c565b5b80604052505050565b60006111d6611142565b90506111e2828261119b565b919050565b600067ffffffffffffffff8211156112025761120161116c565b5b602082029050602081019050919050565b600080fd5b6000819050919050565b61122b81611218565b811461123657600080fd5b50565b60008135905061124881611222565b92915050565b600061126161125c846111e7565b6111cc565b9050808382526020820190506020840283018581111561128457611283611213565b5b835b818110156112ad57806112998882611239565b845260208401935050602081019050611286565b5050509392505050565b600082601f8301126112cc576112cb611156565b5b81356112dc84826020860161124e565b91505092915050565b6000602082840312156112fb576112fa61114c565b5b600082013567ffffffffffffffff81111561131957611318611151565b5b611325848285016112b7565b91505092915050565b600081519050919050565b600082825260208201905092915050565b6000819050602082019050919050565b6000819050919050565b61136d8161135a565b82525050565b600061137f8383611364565b60208301905092915050565b6000602082019050919050565b60006113a38261132e565b6113ad8185611339565b93506113b88361134a565b8060005b838110156113e95781516113d08882611373565b97506113db8361138b565b9250506001810190506113bc565b5085935050505092915050565b600060208201905081810360008301526114108184611398565b905092915050565b6114218161135a565b82525050565b600060208201905061143c6000830184611418565b92915050565b600080604083850312156114595761145861114c565b5b600061146785828601611239565b925050602061147885828601611239565b9150509250929050565b6000602082840312156114985761149761114c565b5b60006114a684828501611239565b91505092915050565b6114b88161135a565b81146114c357600080fd5b50565b6000813590506114d5816114af565b92915050565b600073ffffffffffffffffffffffffffffffffffffffff82169050919050565b6000611506826114db565b9050919050565b611516816114fb565b811461152157600080fd5b50565b6000813590506115338161150d565b92915050565b600080fd5b60008083601f84011261155457611553611156565b5b8235905067ffffffffffffffff81111561157157611570611539565b5b60208301915083600182028301111561158d5761158c611213565b5b9250929050565b6000806000806000806000806000806101008b8d0312156115b8576115b761114c565b5b60006115c68d828e016114c6565b9a505060206115d78d828e016114c6565b99505060406115e88d828e016114c6565b98505060606115f98d828e01611239565b975050608061160a8d828e01611524565b96505060a061161b8d828e01611524565b95505060c08b013567ffffffffffffffff81111561163c5761163b611151565b5b6116488d828e0161153e565b945094505060e08b013567ffffffffffffffff81111561166b5761166a611151565b5b6116778d828e0161153e565b92509250509295989b9194979a5092959850565b61169481611218565b82525050565b6116a3816114fb565b82525050565b600081519050919050565b600082825260208201905092915050565b60005b838110156116e35780820151818401526020810190506116c8565b60008484015250505050565b60006116fa826116a9565b61170481856116b4565b93506117148185602086016116c5565b61171d8161115b565b840191505092915050565b60006101408201905061173e600083018d611418565b61174b602083018c611418565b611758604083018b611418565b611765606083018a611418565b611772608083018961168b565b61177f60a083018861169a565b61178c60c083018761169a565b61179960e083018661169a565b8181036101008301526117ac81856116ef565b90508181036101208301526117c181846116ef565b90509b9a5050505050505050505050565b7f4e487b7100000000000000000000000000000000000000000000000000000000600052603260045260246000fd5b7f4e487b7100000000000000000000000000000000000000000000000000000000600052601160045260246000fd5b600061183b8261135a565b91507fffffffffffffffffffffffffffffffffffffffffffffffffffffffffffffffff820361186d5761186c611801565b5b600182019050919050565b7f535741505f4e4f545f4143544956450000000000000000000000000000000000600082015250565b60006118ae600f836116b4565b91506118b982611878565b602082019050919050565b600060208201905081810360008301526118dd816118a1565b9050919050565b7f494e56414c49445f54494d450000000000000000000000000000000000000000600082015250565b600061191a600c836116b4565b9150611925826118e4565b602082019050919050565b600060208201905081810360008301526119498161190d565b9050919050565b6000602082019050611965600083018461168b565b92915050565b7f494e56414c49445f534543524554000000000000000000000000000000000000600082015250565b60006119a1600e836116b4565b91506119ac8261196b565b602082019050919050565b600060208201905081810360008301526119d081611994565b9050919050565b60006040820190506119ec600083018561169a565b6119f96020830184611418565b9392505050565b60008115159050919050565b611a1581611a00565b8114611a2057600080fd5b50565b600081519050611a3281611a0c565b92915050565b600060208284031215611a4e57611a4d61114c565b5b6000611a5c84828501611a23565b91505092915050565b6000606082019050611a7a600083018661168b565b611a87602083018561168b565b611a94604083018461168b565b949350505050565b6000604082019050611ab1600083018561168b565b611abe602083018461168b565b9392505050565b7f494e56414c49445f414d4f554e54000000000000000000000000000000000000600082015250565b6000611afb600e836116b4565b9150611b0682611ac5565b602082019050919050565b60006020820190508181036000830152611b2a81611aee565b9050919050565b6000606082019050611b46600083018661169a565b611b53602083018561169a565b611b606040830184611418565b949350505050565b600060c082019050611b7d600083018961169a565b611b8a602083018861169a565b611b976040830187611418565b611ba4606083018661168b565b611bb16080830185611418565b611bbe60a083018461169a565b979650505050505050565b7f535741505f455849535453000000000000000000000000000000000000000000600082015250565b6000611bff600b836116b4565b9150611c0a82611bc9565b602082019050919050565b60006020820190508181036000830152611c2e81611bf2565b9050919050565b7f4e487b7100000000000000000000000000000000000000000000000000000000600052602260045260246000fd5b60006002820490506001821680611c7c57607f821691505b602082108103611c8f57611c8e611c35565b5b50919050565b60008190508160005260206000209050919050565b60006020601f8301049050919050565b600082821b905092915050565b600060088302611cf77fffffffffffffffffffffffffffffffffffffffffffffffffffffffffffffffff82611cba565b611d018683611cba565b95508019841693508086168417925050509392505050565b6000819050919050565b6000611d3e611d39611d348461135a565b611d19565b61135a565b9050919050565b6000819050919050565b611d5883611d23565b611d6c611d6482611d45565b848454611cc7565b825550505050565b600090565b611d81611d74565b611d8c818484611d4f565b505050565b5b81811015611db057611da5600082611d79565b600181019050611d92565b5050565b601f821115611df557611dc681611c95565b611dcf84611caa565b81016020851015611dde578190505b611df2611dea85611caa565b830182611d91565b50505b505050565b600082821c905092915050565b6000611e1860001984600802611dfa565b1980831691505092915050565b6000611e318383611e07565b9150826002028217905092915050565b611e4a826116a9565b67ffffffffffffffff811115611e6357611e6261116c565b5b611e6d8254611c64565b611e78828285611db4565b600060209050601f831160018114611eab5760008415611e99578287015190505b611ea38582611e25565b865550611f0b565b601f198416611eb986611c95565b60005b82811015611ee157848901518255600182019150602085019450602081019050611ebc565b86831015611efe5784890151611efa601f891682611e07565b8355505b6001600288020188555050505b505050505050565b82818337600083830152505050565b6000611f2e83856116b4565b9350611f3b838584611f13565b611f448361115b565b840190509392505050565b600060e082019050611f64600083018c611418565b611f71602083018b611418565b611f7e604083018a611418565b611f8b606083018961168b565b611f98608083018861168b565b81810360a0830152611fab818688611f22565b905081810360c0830152611fc0818486611f22565b90509a995050505050505050505056fea264697066735822122015b45acf82c3dbccb8bfe1a599e1454e70e80661cb6fe574689d7427b024060f64736f6c63430008130033",
  "linkReferences": {},
  "deployedLinkReferences": {}
}