{
  "_format": "hh-sol-artifact-1",
  "contractName": "DemoHelpers",
  "sourceName": "contracts/DemoHelpers.sol",
  "abi": [
    {
      "inputs": [
        {
          "internalType": "string",
          "name": "_key",
          "type": "string"
        }
      ],
      "name": "getHash",
      "outputs": [
        {
          "internalType": "bytes32",
          "name": "result",
          "type": "bytes32"
        }
      ],
      "stateMutability": "pure",
      "type": "function"
    },
    {
      "inputs": [],
      "name": "getTimestamp",
      "outputs": [
        {
          "internalType": "uint256",
          "name": "result",
          "type": "uint256"
        }
      ],
      "stateMutability": "view",
      "type": "function"
    },
    {
      "inputs": [
        {
          "internalType": "address",
          "name": "sender",
          "type": "address"
        },
        {
          "internalType": "address",
          "name": "receiver",
          "type": "address"
        },
        {
          "internalType": "uint256",
          "name": "inputAmount",
          "type": "uint256"
        },
        {
          "internalType": "bytes32",
          "name": "hashLock",
          "type": "bytes32"
        },
        {
          "internalType": "uint256",
          "name": "expiration",
          "type": "uint256"
        },
        {
          "internalType": "address",
          "name": "tokenAddress",
          "type": "address"
        }
      ],
      "name": "getTxId",
      "outputs": [
        {
          "internalType": "bytes32",
          "name": "result",
          "type": "bytes32"
        }
      ],
      "stateMutability": "pure",
      "type": "function"
    }
  ],
  "bytecode": "0x608060405234801561001057600080fd5b506105d0806100206000396000f3fe608060405234801561001057600080fd5b50600436106100415760003560e01c8063188ec356146100465780635b6beeb914610064578063a9a3520914610094575b600080fd5b61004e6100c4565b60405161005b9190610154565b60405180910390f35b61007e600480360381019061007991906102c9565b6100cc565b60405161008b919061032b565b60405180910390f35b6100ae60048036038101906100a991906103fc565b6100fc565b6040516100bb919061032b565b60405180910390f35b600042905090565b6000816040516020016100df9190610508565b604051602081830303815290604052805190602001209050919050565b600086868686868660405160200161011996959493929190610539565b6040516020818303038152906040528051906020012090509695505050505050565b6000819050919050565b61014e8161013b565b82525050565b60006020820190506101696000830184610145565b92915050565b6000604051905090565b600080fd5b600080fd5b600080fd5b600080fd5b6000601f19601f8301169050919050565b7f4e487b7100000000000000000000000000000000000000000000000000000000600052604160045260246000fd5b6101d68261018d565b810181811067ffffffffffffffff821117156101f5576101f461019e565b5b80604052505050565b600061020861016f565b905061021482826101cd565b919050565b600067ffffffffffffffff8211156102345761023361019e565b5b61023d8261018d565b9050602081019050919050565b82818337600083830152505050565b600061026c61026784610219565b6101fe565b90508281526020810184848401111561028857610287610188565b5b61029384828561024a565b509392505050565b600082601f8301126102b0576102af610183565b5b81356102c0848260208601610259565b91505092915050565b6000602082840312156102df576102de610179565b5b600082013567ffffffffffffffff8111156102fd576102fc61017e565b5b6103098482850161029b565b91505092915050565b6000819050919050565b61032581610312565b82525050565b6000602082019050610340600083018461031c565b92915050565b600073ffffffffffffffffffffffffffffffffffffffff82169050919050565b600061037182610346565b9050919050565b61038181610366565b811461038c57600080fd5b50565b60008135905061039e81610378565b92915050565b6103ad8161013b565b81146103b857600080fd5b50565b6000813590506103ca816103a4565b92915050565b6103d981610312565b81146103e457600080fd5b50565b6000813590506103f6816103d0565b92915050565b60008060008060008060c0878903121561041957610418610179565b5b600061042789828a0161038f565b965050602061043889828a0161038f565b955050604061044989828a016103bb565b945050606061045a89828a016103e7565b935050608061046b89828a016103bb565b92505060a061047c89828a0161038f565b9150509295509295509295565b600081519050919050565b600082825260208201905092915050565b60005b838110156104c35780820151818401526020810190506104a8565b60008484015250505050565b60006104da82610489565b6104e48185610494565b93506104f48185602086016104a5565b6104fd8161018d565b840191505092915050565b6000602082019050818103600083015261052281846104cf565b905092915050565b61053381610366565b82525050565b600060c08201905061054e600083018961052a565b61055b602083018861052a565b6105686040830187610145565b610575606083018661031c565b6105826080830185610145565b61058f60a083018461052a565b97965050505050505056fea26469706673582212200b012bf1b5e77602c0d244a501794e8d979bfb9a9a62b829f96ee44304b3776f64736f6c63430008130033",
  "linkReferences": {},
  "deployedLinkReferences": {}
}