{
  "_format": "hh-sol-artifact-1",
  "contractName": "LCBDC_Token",
  "sourceName": "contracts/CBDCToken.sol",
  "abi": [
    {
      "inputs": [
        {
          "internalType": "address",
          "name": "initialOwner",
          "type": "address"
        }
      ],
      "stateMutability": "nonpayable",
      "type": "constructor"
    },
    {
      "inputs": [
        {
          "internalType": "address",
          "name": "spender",
          "type": "address"
        },
        {
          "internalType": "uint256",
          "name": "allowance",
          "type": "uint256"
        },
        {
          "internalType": "uint256",
          "name": "needed",
          "type": "uint256"
        }
      ],
      "name": "ERC20InsufficientAllowance",
      "type": "error"
    },
    {
      "inputs": [
        {
          "internalType": "address",
          "name": "sender",
          "type": "address"
        },
        {
          "internalType": "uint256",
          "name": "balance",
          "type": "uint256"
        },
        {
          "internalType": "uint256",
          "name": "needed",
          "type": "uint256"
        }
      ],
      "name": "ERC20InsufficientBalance",
      "type": "error"
    },
    {
      "inputs": [
        {
          "internalType": "address",
          "name": "approver",
          "type": "address"
        }
      ],
      "name": "ERC20InvalidApprover",
      "type": "error"
    },
    {
      "inputs": [
        {
          "internalType": "address",
          "name": "receiver",
          "type": "address"
        }
      ],
      "name": "ERC20InvalidReceiver",
      "type": "error"
    },
    {
      "inputs": [
        {
          "internalType": "address",
          "name": "sender",
          "type": "address"
        }
      ],
      "name": "ERC20InvalidSender",
      "type": "error"
    },
    {
      "inputs": [
        {
          "internalType": "address",
          "name": "spender",
          "type": "address"
        }
      ],
      "name": "ERC20InvalidSpender",
      "type": "error"
    },
    {
      "inputs": [
        {
          "internalType": "address",
          "name": "owner",
          "type": "address"
        }
      ],
      "name": "OwnableInvalidOwner",
      "type": "error"
    },
    {
      "inputs": [
        {
          "internalType": "address",
          "name": "account",
          "type": "address"
        }
      ],
      "name": "OwnableUnauthorizedAccount",
      "type": "error"
    },
    {
      "anonymous": false,
      "inputs": [
        {
          "indexed": true,
          "internalType": "address",
          "name": "owner",
          "type": "address"
        },
        {
          "indexed": true,
          "internalType": "address",
          "name": "spender",
          "type": "address"
        },
        {
          "indexed": false,
          "internalType": "uint256",
          "name": "value",
          "type": "uint256"
        }
      ],
      "name": "Approval",
      "type": "event"
    },
    {
      "anonymous": false,
      "inputs": [
        {
          "indexed": true,
          "internalType": "address",
          "name": "previousOwner",
          "type": "address"
        },
        {
          "indexed": true,
          "internalType": "address",
          "name": "newOwner",
          "type": "address"
        }
      ],
      "name": "OwnershipTransferred",
      "type": "event"
    },
    {
      "anonymous": false,
      "inputs": [
        {
          "indexed": true,
          "internalType": "address",
          "name": "from",
          "type": "address"
        },
        {
          "indexed": true,
          "internalType": "address",
          "name": "to",
          "type": "address"
        },
        {
          "indexed": false,
          "internalType": "uint256",
          "name": "value",
          "type": "uint256"
        }
      ],
      "name": "Transfer",
      "type": "event"
    },
    {
      "inputs": [
        {
          "internalType": "address",
          "name": "owner",
          "type": "address"
        },
        {
          "internalType": "address",
          "name": "spender",
          "type": "address"
        }
      ],
      "name": "allowance",
      "outputs": [
        {
          "internalType": "uint256",
          "name": "",
          "type": "uint256"
        }
      ],
      "stateMutability": "view",
      "type": "function"
    },
    {
      "inputs": [
        {
          "internalType": "address",
          "name": "spender",
          "type": "address"
        },
        {
          "internalType": "uint256",
          "name": "value",
          "type": "uint256"
        }
      ],
      "name": "approve",
      "outputs": [
        {
          "internalType": "bool",
          "name": "",
          "type": "bool"
        }
      ],
      "stateMutability": "nonpayable",
      "type": "function"
    },
    {
      "inputs": [
        {
          "internalType": "address",
          "name": "account",
          "type": "address"
        }
      ],
      "name": "balanceOf",
      "outputs": [
        {
          "internalType": "uint256",
          "name": "",
          "type": "uint256"
        }
      ],
      "stateMutability": "view",
      "type": "function"
    },
    {
      "inputs": [
        {
          "internalType": "uint256",
          "name": "value",
          "type": "uint256"
        }
      ],
      "name": "burn",
      "outputs": [],
      "stateMutability": "nonpayable",
      "type": "function"
    },
    {
      "inputs": [
        {
          "internalType": "address",
          "name": "account",
          "type": "address"
        },
        {
          "internalType": "uint256",
          "name": "value",
          "type": "uint256"
        }
      ],
      "name": "burnFrom",
      "outputs": [],
      "stateMutability": "nonpayable",
      "type": "function"
    },
    {
      "inputs": [],
      "name": "decimals",
      "outputs": [
        {
          "internalType": "uint8",
          "name": "",
          "type": "uint8"
        }
      ],
      "stateMutability": "view",
      "type": "function"
    },
    {
      "inputs": [
        {
          "internalType": "address",
          "name": "from",
          "type": "address"
        },
        {
          "internalType": "uint256",
          "name": "amount",
          "type": "uint256"
        }
      ],
      "name": "decreaseLockBalance",
      "outputs": [],
      "stateMutability": "nonpayable",
      "type": "function"
    },
    {
      "inputs": [
        {
          "internalType": "address",
          "name": "from",
          "type": "address"
        },
        {
          "internalType": "uint256",
          "name": "amount",
          "type": "uint256"
        }
      ],
      "name": "increaseLockBalance",
      "outputs": [],
      "stateMutability": "nonpayable",
      "type": "function"
    },
    {
      "inputs": [
        {
          "internalType": "address",
          "name": "",
          "type": "address"
        }
      ],
      "name": "lockBalanceOf",
      "outputs": [
        {
          "internalType": "uint256",
          "name": "",
          "type": "uint256"
        }
      ],
      "stateMutability": "view",
      "type": "function"
    },
    {
      "inputs": [
        {
          "internalType": "address",
          "name": "to",
          "type": "address"
        },
        {
          "internalType": "uint256",
          "name": "amount",
          "type": "uint256"
        }
      ],
      "name": "mint",
      "outputs": [],
      "stateMutability": "nonpayable",
      "type": "function"
    },
    {
      "inputs": [],
      "name": "name",
      "outputs": [
        {
          "internalType": "string",
          "name": "",
          "type": "string"
        }
      ],
      "stateMutability": "view",
      "type": "function"
    },
    {
      "inputs": [],
      "name": "owner",
      "outputs": [
        {
          "internalType": "address",
          "name": "",
          "type": "address"
        }
      ],
      "stateMutability": "view",
      "type": "function"
    },
    {
      "inputs": [],
      "name": "renounceOwnership",
      "outputs": [],
      "stateMutability": "nonpayable",
      "type": "function"
    },
    {
      "inputs": [],
      "name": "symbol",
      "outputs": [
        {
          "internalType": "string",
          "name": "",
          "type": "string"
        }
      ],
      "stateMutability": "view",
      "type": "function"
    },
    {
      "inputs": [],
      "name": "totalSupply",
      "outputs": [
        {
          "internalType": "uint256",
          "name": "",
          "type": "uint256"
        }
      ],
      "stateMutability": "view",
      "type": "function"
    },
    {
      "inputs": [
        {
          "internalType": "address",
          "name": "to",
          "type": "address"
        },
        {
          "internalType": "uint256",
          "name": "value",
          "type": "uint256"
        }
      ],
      "name": "transfer",
      "outputs": [
        {
          "internalType": "bool",
          "name": "",
          "type": "bool"
        }
      ],
      "stateMutability": "nonpayable",
      "type": "function"
    },
    {
      "inputs": [
        {
          "internalType": "address",
          "name": "from",
          "type": "address"
        },
        {
          "internalType": "address",
          "name": "to",
          "type": "address"
        },
        {
          "internalType": "uint256",
          "name": "value",
          "type": "uint256"
        }
      ],
      "name": "transferFrom",
      "outputs": [
        {
          "internalType": "bool",
          "name": "",
          "type": "bool"
        }
      ],
      "stateMutability": "nonpayable",
      "type": "function"
    },
    {
      "inputs": [
        {
          "internalType": "address",
          "name": "newOwner",
          "type": "address"
        }
      ],
      "name": "transferOwnership",
      "outputs": [],
      "stateMutability": "nonpayable",
      "type": "function"
    }
  ],
  "bytecode": "0x60806040523480156200001157600080fd5b5060405162001e0838038062001e08833981810160405281019062000037919062000288565b806040518060400160405280600d81526020017f4342444354657374546f6b656e000000000000000000000000000000000000008152506040518060400160405280600381526020017f574f4e00000000000000000000000000000000000000000000000000000000008152508160039081620000b5919062000534565b508060049081620000c7919062000534565b505050600073ffffffffffffffffffffffffffffffffffffffff168173ffffffffffffffffffffffffffffffffffffffff16036200013f5760006040517f1e4fbdf70000000000000000000000000000000000000000000000000000000081526004016200013691906200062c565b60405180910390fd5b62000150816200015860201b60201c565b505062000649565b6000600560009054906101000a900473ffffffffffffffffffffffffffffffffffffffff16905081600560006101000a81548173ffffffffffffffffffffffffffffffffffffffff021916908373ffffffffffffffffffffffffffffffffffffffff1602179055508173ffffffffffffffffffffffffffffffffffffffff168173ffffffffffffffffffffffffffffffffffffffff167f8be0079c531659141344cd1fd0a4f28419497f9722a3daafe3b4186f6b6457e060405160405180910390a35050565b600080fd5b600073ffffffffffffffffffffffffffffffffffffffff82169050919050565b6000620002508262000223565b9050919050565b620002628162000243565b81146200026e57600080fd5b50565b600081519050620002828162000257565b92915050565b600060208284031215620002a157620002a06200021e565b5b6000620002b18482850162000271565b91505092915050565b600081519050919050565b7f4e487b7100000000000000000000000000000000000000000000000000000000600052604160045260246000fd5b7f4e487b7100000000000000000000000000000000000000000000000000000000600052602260045260246000fd5b600060028204905060018216806200033c57607f821691505b602082108103620003525762000351620002f4565b5b50919050565b60008190508160005260206000209050919050565b60006020601f8301049050919050565b600082821b905092915050565b600060088302620003bc7fffffffffffffffffffffffffffffffffffffffffffffffffffffffffffffffff826200037d565b620003c886836200037d565b95508019841693508086168417925050509392505050565b6000819050919050565b6000819050919050565b6000620004156200040f6200040984620003e0565b620003ea565b620003e0565b9050919050565b6000819050919050565b6200043183620003f4565b6200044962000440826200041c565b8484546200038a565b825550505050565b600090565b6200046062000451565b6200046d81848462000426565b505050565b5b8181101562000495576200048960008262000456565b60018101905062000473565b5050565b601f821115620004e457620004ae8162000358565b620004b9846200036d565b81016020851015620004c9578190505b620004e1620004d8856200036d565b83018262000472565b50505b505050565b600082821c905092915050565b60006200050960001984600802620004e9565b1980831691505092915050565b6000620005248383620004f6565b9150826002028217905092915050565b6200053f82620002ba565b67ffffffffffffffff8111156200055b576200055a620002c5565b5b62000567825462000323565b6200057482828562000499565b600060209050601f831160018114620005ac576000841562000597578287015190505b620005a3858262000516565b86555062000613565b601f198416620005bc8662000358565b60005b82811015620005e657848901518255600182019150602085019450602081019050620005bf565b8683101562000606578489015162000602601f891682620004f6565b8355505b6001600288020188555050505b505050505050565b620006268162000243565b82525050565b60006020820190506200064360008301846200061b565b92915050565b6117af80620006596000396000f3fe608060405234801561001057600080fd5b50600436106101165760003560e01c806370a08231116100a257806395d89b411161007157806395d89b41146102cd578063a9059cbb146102eb578063dd62ed3e1461031b578063e6108fc91461034b578063f2fde38b1461036757610116565b806370a0823114610259578063715018a61461028957806379cc6790146102935780638da5cb5b146102af57610116565b806323b872dd116100e957806323b872dd146101b7578063313ce567146101e757806340c10f191461020557806342966c68146102215780636c4e5c861461023d57610116565b806306fdde031461011b578063095ea7b31461013957806310e776ed1461016957806318160ddd14610199575b600080fd5b610123610383565b604051610130919061125e565b60405180910390f35b610153600480360381019061014e9190611319565b610415565b6040516101609190611374565b60405180910390f35b610183600480360381019061017e919061138f565b610438565b60405161019091906113cb565b60405180910390f35b6101a1610450565b6040516101ae91906113cb565b60405180910390f35b6101d160048036038101906101cc91906113e6565b61045a565b6040516101de9190611374565b60405180910390f35b6101ef610489565b6040516101fc9190611455565b60405180910390f35b61021f600480360381019061021a9190611319565b610492565b005b61023b60048036038101906102369190611470565b6104a8565b005b61025760048036038101906102529190611319565b6104bc565b005b610273600480360381019061026e919061138f565b6105a0565b60405161028091906113cb565b60405180910390f35b6102916105e8565b005b6102ad60048036038101906102a89190611319565b6105fc565b005b6102b761061c565b6040516102c491906114ac565b60405180910390f35b6102d5610646565b6040516102e2919061125e565b60405180910390f35b61030560048036038101906103009190611319565b6106d8565b6040516103129190611374565b60405180910390f35b610335600480360381019061033091906114c7565b6106fb565b60405161034291906113cb565b60405180910390f35b61036560048036038101906103609190611319565b610782565b005b610381600480360381019061037c919061138f565b610879565b005b60606003805461039290611536565b80601f01602080910402602001604051908101604052809291908181526020018280546103be90611536565b801561040b5780601f106103e05761010080835404028352916020019161040b565b820191906000526020600020905b8154815290600101906020018083116103ee57829003601f168201915b5050505050905090565b6000806104206108ff565b905061042d818585610907565b600191505092915050565b60066020528060005260406000206000915090505481565b6000600254905090565b6000806104656108ff565b9050610472858285610919565b61047d8585856109ad565b60019150509392505050565b60006012905090565b61049a610aa1565b6104a48282610b28565b5050565b6104b96104b36108ff565b82610baa565b50565b6104c4610aa1565b80600660008473ffffffffffffffffffffffffffffffffffffffff1673ffffffffffffffffffffffffffffffffffffffff168152602001908152602001600020541015610546576040517f08c379a000000000000000000000000000000000000000000000000000000000815260040161053d906115b3565b60405180910390fd5b80600660008473ffffffffffffffffffffffffffffffffffffffff1673ffffffffffffffffffffffffffffffffffffffff16815260200190815260200160002060008282546105959190611602565b925050819055505050565b60008060008373ffffffffffffffffffffffffffffffffffffffff1673ffffffffffffffffffffffffffffffffffffffff168152602001908152602001600020549050919050565b6105f0610aa1565b6105fa6000610c2c565b565b61060e826106086108ff565b83610919565b6106188282610baa565b5050565b6000600560009054906101000a900473ffffffffffffffffffffffffffffffffffffffff16905090565b60606004805461065590611536565b80601f016020809104026020016040519081016040528092919081815260200182805461068190611536565b80156106ce5780601f106106a3576101008083540402835291602001916106ce565b820191906000526020600020905b8154815290600101906020018083116106b157829003601f168201915b5050505050905090565b6000806106e36108ff565b90506106f08185856109ad565b600191505092915050565b6000600160008473ffffffffffffffffffffffffffffffffffffffff1673ffffffffffffffffffffffffffffffffffffffff16815260200190815260200160002060008373ffffffffffffffffffffffffffffffffffffffff1673ffffffffffffffffffffffffffffffffffffffff16815260200190815260200160002054905092915050565b61078a610aa1565b80600660008473ffffffffffffffffffffffffffffffffffffffff1673ffffffffffffffffffffffffffffffffffffffff168152602001908152602001600020546107d59190611636565b6107de836105a0565b101561081f576040517f08c379a0000000000000000000000000000000000000000000000000000000008152600401610816906116b6565b60405180910390fd5b80600660008473ffffffffffffffffffffffffffffffffffffffff1673ffffffffffffffffffffffffffffffffffffffff168152602001908152602001600020600082825461086e9190611636565b925050819055505050565b610881610aa1565b600073ffffffffffffffffffffffffffffffffffffffff168173ffffffffffffffffffffffffffffffffffffffff16036108f35760006040517f1e4fbdf70000000000000000000000000000000000000000000000000000000081526004016108ea91906114ac565b60405180910390fd5b6108fc81610c2c565b50565b600033905090565b6109148383836001610cf2565b505050565b600061092584846106fb565b90507fffffffffffffffffffffffffffffffffffffffffffffffffffffffffffffffff81146109a75781811015610997578281836040517ffb8f41b200000000000000000000000000000000000000000000000000000000815260040161098e939291906116d6565b60405180910390fd5b6109a684848484036000610cf2565b5b50505050565b600073ffffffffffffffffffffffffffffffffffffffff168373ffffffffffffffffffffffffffffffffffffffff1603610a1f5760006040517f96c6fd1e000000000000000000000000000000000000000000000000000000008152600401610a1691906114ac565b60405180910390fd5b600073ffffffffffffffffffffffffffffffffffffffff168273ffffffffffffffffffffffffffffffffffffffff1603610a915760006040517fec442f05000000000000000000000000000000000000000000000000000000008152600401610a8891906114ac565b60405180910390fd5b610a9c838383610ec9565b505050565b610aa96108ff565b73ffffffffffffffffffffffffffffffffffffffff16610ac761061c565b73ffffffffffffffffffffffffffffffffffffffff1614610b2657610aea6108ff565b6040517f118cdaa7000000000000000000000000000000000000000000000000000000008152600401610b1d91906114ac565b60405180910390fd5b565b600073ffffffffffffffffffffffffffffffffffffffff168273ffffffffffffffffffffffffffffffffffffffff1603610b9a5760006040517fec442f05000000000000000000000000000000000000000000000000000000008152600401610b9191906114ac565b60405180910390fd5b610ba660008383610ec9565b5050565b600073ffffffffffffffffffffffffffffffffffffffff168273ffffffffffffffffffffffffffffffffffffffff1603610c1c5760006040517f96c6fd1e000000000000000000000000000000000000000000000000000000008152600401610c1391906114ac565b60405180910390fd5b610c2882600083610ec9565b5050565b6000600560009054906101000a900473ffffffffffffffffffffffffffffffffffffffff16905081600560006101000a81548173ffffffffffffffffffffffffffffffffffffffff021916908373ffffffffffffffffffffffffffffffffffffffff1602179055508173ffffffffffffffffffffffffffffffffffffffff168173ffffffffffffffffffffffffffffffffffffffff167f8be0079c531659141344cd1fd0a4f28419497f9722a3daafe3b4186f6b6457e060405160405180910390a35050565b600073ffffffffffffffffffffffffffffffffffffffff168473ffffffffffffffffffffffffffffffffffffffff1603610d645760006040517fe602df05000000000000000000000000000000000000000000000000000000008152600401610d5b91906114ac565b60405180910390fd5b600073ffffffffffffffffffffffffffffffffffffffff168373ffffffffffffffffffffffffffffffffffffffff1603610dd65760006040517f94280d62000000000000000000000000000000000000000000000000000000008152600401610dcd91906114ac565b60405180910390fd5b81600160008673ffffffffffffffffffffffffffffffffffffffff1673ffffffffffffffffffffffffffffffffffffffff16815260200190815260200160002060008573ffffffffffffffffffffffffffffffffffffffff1673ffffffffffffffffffffffffffffffffffffffff168152602001908152602001600020819055508015610ec3578273ffffffffffffffffffffffffffffffffffffffff168473ffffffffffffffffffffffffffffffffffffffff167f8c5be1e5ebec7d5bd14f71427d1e84f3dd0314c0f7b2291e5b200ac8c7c3b92584604051610eba91906113cb565b60405180910390a35b50505050565b8281600073ffffffffffffffffffffffffffffffffffffffff168273ffffffffffffffffffffffffffffffffffffffff161480610f58575080600660008473ffffffffffffffffffffffffffffffffffffffff1673ffffffffffffffffffffffffffffffffffffffff16815260200190815260200160002054610f4b846105a0565b610f559190611602565b10155b610f97576040517f08c379a0000000000000000000000000000000000000000000000000000000008152600401610f8e90611759565b60405180910390fd5b610fa2858585610fa9565b5050505050565b600073ffffffffffffffffffffffffffffffffffffffff168373ffffffffffffffffffffffffffffffffffffffff1603610ffb578060026000828254610fef9190611636565b925050819055506110ce565b60008060008573ffffffffffffffffffffffffffffffffffffffff1673ffffffffffffffffffffffffffffffffffffffff16815260200190815260200160002054905081811015611087578381836040517fe450d38c00000000000000000000000000000000000000000000000000000000815260040161107e939291906116d6565b60405180910390fd5b8181036000808673ffffffffffffffffffffffffffffffffffffffff1673ffffffffffffffffffffffffffffffffffffffff16815260200190815260200160002081905550505b600073ffffffffffffffffffffffffffffffffffffffff168273ffffffffffffffffffffffffffffffffffffffff16036111175780600260008282540392505081905550611164565b806000808473ffffffffffffffffffffffffffffffffffffffff1673ffffffffffffffffffffffffffffffffffffffff168152602001908152602001600020600082825401925050819055505b8173ffffffffffffffffffffffffffffffffffffffff168373ffffffffffffffffffffffffffffffffffffffff167fddf252ad1be2c89b69c2b068fc378daa952ba7f163c4a11628f55a4df523b3ef836040516111c191906113cb565b60405180910390a3505050565b600081519050919050565b600082825260208201905092915050565b60005b838110156112085780820151818401526020810190506111ed565b60008484015250505050565b6000601f19601f8301169050919050565b6000611230826111ce565b61123a81856111d9565b935061124a8185602086016111ea565b61125381611214565b840191505092915050565b600060208201905081810360008301526112788184611225565b905092915050565b600080fd5b600073ffffffffffffffffffffffffffffffffffffffff82169050919050565b60006112b082611285565b9050919050565b6112c0816112a5565b81146112cb57600080fd5b50565b6000813590506112dd816112b7565b92915050565b6000819050919050565b6112f6816112e3565b811461130157600080fd5b50565b600081359050611313816112ed565b92915050565b600080604083850312156113305761132f611280565b5b600061133e858286016112ce565b925050602061134f85828601611304565b9150509250929050565b60008115159050919050565b61136e81611359565b82525050565b60006020820190506113896000830184611365565b92915050565b6000602082840312156113a5576113a4611280565b5b60006113b3848285016112ce565b91505092915050565b6113c5816112e3565b82525050565b60006020820190506113e060008301846113bc565b92915050565b6000806000606084860312156113ff576113fe611280565b5b600061140d868287016112ce565b935050602061141e868287016112ce565b925050604061142f86828701611304565b9150509250925092565b600060ff82169050919050565b61144f81611439565b82525050565b600060208201905061146a6000830184611446565b92915050565b60006020828403121561148657611485611280565b5b600061149484828501611304565b91505092915050565b6114a6816112a5565b82525050565b60006020820190506114c1600083018461149d565b92915050565b600080604083850312156114de576114dd611280565b5b60006114ec858286016112ce565b92505060206114fd858286016112ce565b9150509250929050565b7f4e487b7100000000000000000000000000000000000000000000000000000000600052602260045260246000fd5b6000600282049050600182168061154e57607f821691505b60208210810361156157611560611507565b5b50919050565b7f436865636b2043424443204c6f636b2042616c616e6365000000000000000000600082015250565b600061159d6017836111d9565b91506115a882611567565b602082019050919050565b600060208201905081810360008301526115cc81611590565b9050919050565b7f4e487b7100000000000000000000000000000000000000000000000000000000600052601160045260246000fd5b600061160d826112e3565b9150611618836112e3565b92508282039050818111156116305761162f6115d3565b5b92915050565b6000611641826112e3565b915061164c836112e3565b9250828201905080821115611664576116636115d3565b5b92915050565b7f436865636b20434244432042616c616e63650000000000000000000000000000600082015250565b60006116a06012836111d9565b91506116ab8261166a565b602082019050919050565b600060208201905081810360008301526116cf81611693565b9050919050565b60006060820190506116eb600083018661149d565b6116f860208301856113bc565b61170560408301846113bc565b949350505050565b7f66726f6d4164647265737320434244432042616c616e636520436865636b0000600082015250565b6000611743601e836111d9565b915061174e8261170d565b602082019050919050565b6000602082019050818103600083015261177281611736565b905091905056fea264697066735822122073639df625cc2e2d4c6b1c9d7857aa12573abb5e8445297c37cf12f64a6d46a164736f6c63430008180033",
  "linkReferences": {},
  "deployedLinkReferences": {}
}