{
  "_format": "hh-sol-artifact-1",
  "contractName": "HashedTimeLockContract",
  "sourceName": "contracts/HashedTimeLockContract.sol",
  "abi": [
    {
      "anonymous": false,
      "inputs": [
        {
          "indexed": false,
          "internalType": "uint256",
          "name": "inputAmount",
          "type": "uint256"
        },
        {
          "indexed": false,
          "internalType": "uint256",
          "name": "outputAmount",
          "type": "uint256"
        },
        {
          "indexed": false,
          "internalType": "uint256",
          "name": "expiration",
          "type": "uint256"
        },
        {
          "indexed": false,
          "internalType": "bytes32",
          "name": "id",
          "type": "bytes32"
        },
        {
          "indexed": false,
          "internalType": "bytes32",
          "name": "hashLock",
          "type": "bytes32"
        },
        {
          "indexed": true,
          "internalType": "address",
          "name": "tokenAddress",
          "type": "address"
        },
        {
          "indexed": true,
          "internalType": "address",
          "name": "sender",
          "type": "address"
        },
        {
          "indexed": true,
          "internalType": "address",
          "name": "receiver",
          "type": "address"
        },
        {
          "indexed": false,
          "internalType": "string",
          "name": "outputNetwork",
          "type": "string"
        },
        {
          "indexed": false,
          "internalType": "string",
          "name": "outputAddress",
          "type": "string"
        }
      ],
      "name": "NewContract",
      "type": "event"
    },
    {
      "anonymous": false,
      "inputs": [
        {
          "indexed": false,
          "internalType": "bytes32",
          "name": "id",
          "type": "bytes32"
        },
        {
          "indexed": false,
          "internalType": "bytes32",
          "name": "hashLock",
          "type": "bytes32"
        },
        {
          "indexed": true,
          "internalType": "address",
          "name": "tokenAddress",
          "type": "address"
        },
        {
          "indexed": true,
          "internalType": "address",
          "name": "sender",
          "type": "address"
        },
        {
          "indexed": true,
          "internalType": "address",
          "name": "receiver",
          "type": "address"
        }
      ],
      "name": "Refund",
      "type": "event"
    },
    {
      "anonymous": false,
      "inputs": [
        {
          "indexed": false,
          "internalType": "bytes32",
          "name": "id",
          "type": "bytes32"
        },
        {
          "indexed": false,
          "internalType": "bytes32",
          "name": "secret",
          "type": "bytes32"
        },
        {
          "indexed": false,
          "internalType": "bytes32",
          "name": "hashLock",
          "type": "bytes32"
        },
        {
          "indexed": true,
          "internalType": "address",
          "name": "tokenAddress",
          "type": "address"
        },
        {
          "indexed": true,
          "internalType": "address",
          "name": "sender",
          "type": "address"
        },
        {
          "indexed": true,
          "internalType": "address",
          "name": "receiver",
          "type": "address"
        }
      ],
      "name": "Withdraw",
      "type": "event"
    },
    {
      "inputs": [],
      "name": "ACTIVE",
      "outputs": [
        {
          "internalType": "uint256",
          "name": "",
          "type": "uint256"
        }
      ],
      "stateMutability": "view",
      "type": "function"
    },
    {
      "inputs": [],
      "name": "EXPIRED",
      "outputs": [
        {
          "internalType": "uint256",
          "name": "",
          "type": "uint256"
        }
      ],
      "stateMutability": "view",
      "type": "function"
    },
    {
      "inputs": [],
      "name": "INVALID",
      "outputs": [
        {
          "internalType": "uint256",
          "name": "",
          "type": "uint256"
        }
      ],
      "stateMutability": "view",
      "type": "function"
    },
    {
      "inputs": [],
      "name": "REFUNDED",
      "outputs": [
        {
          "internalType": "uint256",
          "name": "",
          "type": "uint256"
        }
      ],
      "stateMutability": "view",
      "type": "function"
    },
    {
      "inputs": [],
      "name": "WITHDRAWN",
      "outputs": [
        {
          "internalType": "uint256",
          "name": "",
          "type": "uint256"
        }
      ],
      "stateMutability": "view",
      "type": "function"
    },
    {
      "inputs": [
        {
          "internalType": "bytes32",
          "name": "",
          "type": "bytes32"
        }
      ],
      "name": "contracts",
      "outputs": [
        {
          "internalType": "uint256",
          "name": "inputAmount",
          "type": "uint256"
        },
        {
          "internalType": "uint256",
          "name": "outputAmount",
          "type": "uint256"
        },
        {
          "internalType": "uint256",
          "name": "expiration",
          "type": "uint256"
        },
        {
          "internalType": "uint256",
          "name": "status",
          "type": "uint256"
        },
        {
          "internalType": "bytes32",
          "name": "hashLock",
          "type": "bytes32"
        },
        {
          "internalType": "address",
          "name": "tokenAddress",
          "type": "address"
        },
        {
          "internalType": "address",
          "name": "sender",
          "type": "address"
        },
        {
          "internalType": "address",
          "name": "receiver",
          "type": "address"
        },
        {
          "internalType": "string",
          "name": "outputNetwork",
          "type": "string"
        },
        {
          "internalType": "string",
          "name": "outputAddress",
          "type": "string"
        }
      ],
      "stateMutability": "view",
      "type": "function"
    },
    {
      "inputs": [
        {
          "internalType": "bytes32",
          "name": "id",
          "type": "bytes32"
        }
      ],
      "name": "getSingleStatus",
      "outputs": [
        {
          "internalType": "uint256",
          "name": "result",
          "type": "uint256"
        }
      ],
      "stateMutability": "view",
      "type": "function"
    },
    {
      "inputs": [
        {
          "internalType": "bytes32[]",
          "name": "ids",
          "type": "bytes32[]"
        }
      ],
      "name": "getStatus",
      "outputs": [
        {
          "internalType": "uint256[]",
          "name": "",
          "type": "uint256[]"
        }
      ],
      "stateMutability": "view",
      "type": "function"
    },
    {
      "inputs": [
        {
          "internalType": "uint256",
          "name": "inputAmount",
          "type": "uint256"
        },
        {
          "internalType": "uint256",
          "name": "outputAmount",
          "type": "uint256"
        },
        {
          "internalType": "uint256",
          "name": "expiration",
          "type": "uint256"
        },
        {
          "internalType": "bytes32",
          "name": "hashLock",
          "type": "bytes32"
        },
        {
          "internalType": "address",
          "name": "tokenAddress",
          "type": "address"
        },
        {
          "internalType": "address",
          "name": "receiver",
          "type": "address"
        },
        {
          "internalType": "string",
          "name": "outputNetwork",
          "type": "string"
        },
        {
          "internalType": "string",
          "name": "outputAddress",
          "type": "string"
        }
      ],
      "name": "newContract",
      "outputs": [],
      "stateMutability": "nonpayable",
      "type": "function"
    },
    {
      "inputs": [
        {
          "internalType": "bytes32",
          "name": "id",
          "type": "bytes32"
        }
      ],
      "name": "refund",
      "outputs": [],
      "stateMutability": "nonpayable",
      "type": "function"
    },
    {
      "inputs": [
        {
          "internalType": "bytes32",
          "name": "id",
          "type": "bytes32"
        },
        {
          "internalType": "bytes32",
          "name": "secret",
          "type": "bytes32"
        }
      ],
      "name": "withdraw",
      "outputs": [],
      "stateMutability": "nonpayable",
      "type": "function"
    }
  ],
  "bytecode": "0x608060405234801561001057600080fd5b50611f89806100206000396000f3fe608060405234801561001057600080fd5b50600436106100a95760003560e01c806394e15c8f1161007157806394e15c8f14610152578063af78feef14610170578063c90bd0471461018e578063d2fd8b76146101ac578063ec56a373146101c8578063fbdf3b4314610201576100a9565b80632f21a663146100ae578063414ac85b146100de57806363615149146100fc5780637249fbb6146101185780637fcce2a914610134575b600080fd5b6100c860048036038101906100c391906112df565b610231565b6040516100d591906113f0565b60405180910390f35b6100e66102e6565b6040516100f39190611421565b60405180910390f35b6101166004803603810190610111919061143c565b6102eb565b005b610132600480360381019061012d919061147c565b6105c4565b005b61013c61082f565b6040516101499190611421565b60405180910390f35b61015a610834565b6040516101679190611421565b60405180910390f35b610178610839565b6040516101859190611421565b60405180910390f35b61019661083e565b6040516101a39190611421565b60405180910390f35b6101c660048036038101906101c1919061158e565b610843565b005b6101e260048036038101906101dd919061147c565b610cca565b6040516101f89a99989796959493929190611722565b60405180910390f35b61021b6004803603810190610216919061147c565b610e8e565b6040516102289190611421565b60405180910390f35b60606000825167ffffffffffffffff8111156102505761024f611166565b5b60405190808252806020026020018201604052801561027e5781602001602082028036833780820191505090505b50905060005b83518110156102dc576102b08482815181106102a3576102a26117cc565b5b6020026020010151610e8e565b8282815181106102c3576102c26117cc565b5b6020026020010181815250508080600101915050610284565b5080915050919050565b600481565b600080600084815260200190815260200160002090506001816003015414610348576040517f08c379a000000000000000000000000000000000000000000000000000000000815260040161033f90611847565b60405180910390fd5b4281600201541161038e576040517f08c379a0000000000000000000000000000000000000000000000000000000008152600401610385906118b3565b60405180910390fd5b8160405160200161039f91906118d3565b604051602081830303815290604052805190602001208160040154146103fa576040517f08c379a00000000000000000000000000000000000000000000000000000000081526004016103f19061193a565b60405180910390fd5b600381600301819055508060050160009054906101000a900473ffffffffffffffffffffffffffffffffffffffff1673ffffffffffffffffffffffffffffffffffffffff1663a9059cbb8260070160009054906101000a900473ffffffffffffffffffffffffffffffffffffffff1683600001546040518363ffffffff1660e01b815260040161048b92919061195a565b6020604051808303816000875af11580156104aa573d6000803e3d6000fd5b505050506040513d601f19601f820116820180604052508101906104ce91906119bb565b508060070160009054906101000a900473ffffffffffffffffffffffffffffffffffffffff1673ffffffffffffffffffffffffffffffffffffffff168160060160009054906101000a900473ffffffffffffffffffffffffffffffffffffffff1673ffffffffffffffffffffffffffffffffffffffff168260050160009054906101000a900473ffffffffffffffffffffffffffffffffffffffff1673ffffffffffffffffffffffffffffffffffffffff167fbab3eb11a71b2cd82a010d4d5b2c3df5cd25ee8c9f1a75baff879a1b87942cb8868686600401546040516105b7939291906119e8565b60405180910390a4505050565b600080600083815260200190815260200160002090506001816003015414610621576040517f08c379a000000000000000000000000000000000000000000000000000000000815260040161061890611847565b60405180910390fd5b4281600201541115610668576040517f08c379a000000000000000000000000000000000000000000000000000000000815260040161065f906118b3565b60405180910390fd5b600281600301819055508060050160009054906101000a900473ffffffffffffffffffffffffffffffffffffffff1673ffffffffffffffffffffffffffffffffffffffff1663a9059cbb8260060160009054906101000a900473ffffffffffffffffffffffffffffffffffffffff1683600001546040518363ffffffff1660e01b81526004016106f992919061195a565b6020604051808303816000875af1158015610718573d6000803e3d6000fd5b505050506040513d601f19601f8201168201806040525081019061073c91906119bb565b508060070160009054906101000a900473ffffffffffffffffffffffffffffffffffffffff1673ffffffffffffffffffffffffffffffffffffffff168160060160009054906101000a900473ffffffffffffffffffffffffffffffffffffffff1673ffffffffffffffffffffffffffffffffffffffff168260050160009054906101000a900473ffffffffffffffffffffffffffffffffffffffff1673ffffffffffffffffffffffffffffffffffffffff167f0d4cdc2fe2a785f03bf5481e13bee5cdcb7743166bcadafebfd3f09db6108117858560040154604051610823929190611a1f565b60405180910390a45050565b600081565b600281565b600381565b600181565b428811610885576040517f08c379a000000000000000000000000000000000000000000000000000000000815260040161087c906118b3565b60405180910390fd5b60008a116108c8576040517f08c379a00000000000000000000000000000000000000000000000000000000081526004016108bf90611a94565b60405180910390fd5b8573ffffffffffffffffffffffffffffffffffffffff166323b872dd33308d6040518463ffffffff1660e01b815260040161090593929190611ab4565b6020604051808303816000875af1158015610924573d6000803e3d6000fd5b505050506040513d601f19601f8201168201806040525081019061094891906119bb565b50600033868c8a8c8b60405160200161096696959493929190611aeb565b604051602081830303815290604052805190602001209050600080600083815260200190815260200160002060030154146109d6576040517f08c379a00000000000000000000000000000000000000000000000000000000081526004016109cd90611b98565b60405180910390fd5b6040518061014001604052808c81526020018b81526020018a8152602001600181526020018981526020018873ffffffffffffffffffffffffffffffffffffffff1681526020013373ffffffffffffffffffffffffffffffffffffffff1681526020018773ffffffffffffffffffffffffffffffffffffffff16815260200186868080601f016020809104026020016040519081016040528093929190818152602001838380828437600081840152601f19601f82011690508083019250505050505050815260200184848080601f016020809104026020016040519081016040528093929190818152602001838380828437600081840152601f19601f82011690508083019250505050505050815250600080838152602001908152602001600020600082015181600001556020820151816001015560408201518160020155606082015181600301556080820151816004015560a08201518160050160006101000a81548173ffffffffffffffffffffffffffffffffffffffff021916908373ffffffffffffffffffffffffffffffffffffffff16021790555060c08201518160060160006101000a81548173ffffffffffffffffffffffffffffffffffffffff021916908373ffffffffffffffffffffffffffffffffffffffff16021790555060e08201518160070160006101000a81548173ffffffffffffffffffffffffffffffffffffffff021916908373ffffffffffffffffffffffffffffffffffffffff160217905550610100820151816008019081610c169190611dc4565b50610120820151816009019081610c2d9190611dc4565b509050508573ffffffffffffffffffffffffffffffffffffffff163373ffffffffffffffffffffffffffffffffffffffff168873ffffffffffffffffffffffffffffffffffffffff167f448581ece7da63e54a320119f9f2b80c868a954c441e70c88ecdfc95919751248e8e8e878f8d8d8d8d604051610cb599989796959493929190611ed2565b60405180910390a45050505050505050505050565b60006020528060005260406000206000915090508060000154908060010154908060020154908060030154908060040154908060050160009054906101000a900473ffffffffffffffffffffffffffffffffffffffff16908060060160009054906101000a900473ffffffffffffffffffffffffffffffffffffffff16908060070160009054906101000a900473ffffffffffffffffffffffffffffffffffffffff1690806008018054610d7d90611be7565b80601f0160208091040260200160405190810160405280929190818152602001828054610da990611be7565b8015610df65780601f10610dcb57610100808354040283529160200191610df6565b820191906000526020600020905b815481529060010190602001808311610dd957829003601f168201915b505050505090806009018054610e0b90611be7565b80601f0160208091040260200160405190810160405280929190818152602001828054610e3790611be7565b8015610e845780601f10610e5957610100808354040283529160200191610e84565b820191906000526020600020905b815481529060010190602001808311610e6757829003601f168201915b505050505090508a565b6000806000808481526020019081526020016000206040518061014001604052908160008201548152602001600182015481526020016002820154815260200160038201548152602001600482015481526020016005820160009054906101000a900473ffffffffffffffffffffffffffffffffffffffff1673ffffffffffffffffffffffffffffffffffffffff1673ffffffffffffffffffffffffffffffffffffffff1681526020016006820160009054906101000a900473ffffffffffffffffffffffffffffffffffffffff1673ffffffffffffffffffffffffffffffffffffffff1673ffffffffffffffffffffffffffffffffffffffff1681526020016007820160009054906101000a900473ffffffffffffffffffffffffffffffffffffffff1673ffffffffffffffffffffffffffffffffffffffff1673ffffffffffffffffffffffffffffffffffffffff168152602001600882018054610ff390611be7565b80601f016020809104026020016040519081016040528092919081815260200182805461101f90611be7565b801561106c5780601f106110415761010080835404028352916020019161106c565b820191906000526020600020905b81548152906001019060200180831161104f57829003601f168201915b5050505050815260200160098201805461108590611be7565b80601f01602080910402602001604051908101604052809291908181526020018280546110b190611be7565b80156110fe5780601f106110d3576101008083540402835291602001916110fe565b820191906000526020600020905b8154815290600101906020018083116110e157829003601f168201915b5050505050815250509050600181606001511480156111205750428160400151105b1561112e5760049150611136565b806060015191505b50919050565b6000604051905090565b600080fd5b600080fd5b600080fd5b6000601f19601f8301169050919050565b7f4e487b7100000000000000000000000000000000000000000000000000000000600052604160045260246000fd5b61119e82611155565b810181811067ffffffffffffffff821117156111bd576111bc611166565b5b80604052505050565b60006111d061113c565b90506111dc8282611195565b919050565b600067ffffffffffffffff8211156111fc576111fb611166565b5b602082029050602081019050919050565b600080fd5b6000819050919050565b61122581611212565b811461123057600080fd5b50565b6000813590506112428161121c565b92915050565b600061125b611256846111e1565b6111c6565b9050808382526020820190506020840283018581111561127e5761127d61120d565b5b835b818110156112a757806112938882611233565b845260208401935050602081019050611280565b5050509392505050565b600082601f8301126112c6576112c5611150565b5b81356112d6848260208601611248565b91505092915050565b6000602082840312156112f5576112f4611146565b5b600082013567ffffffffffffffff8111156113135761131261114b565b5b61131f848285016112b1565b91505092915050565b600081519050919050565b600082825260208201905092915050565b6000819050602082019050919050565b6000819050919050565b61136781611354565b82525050565b6000611379838361135e565b60208301905092915050565b6000602082019050919050565b600061139d82611328565b6113a78185611333565b93506113b283611344565b8060005b838110156113e35781516113ca888261136d565b97506113d583611385565b9250506001810190506113b6565b5085935050505092915050565b6000602082019050818103600083015261140a8184611392565b905092915050565b61141b81611354565b82525050565b60006020820190506114366000830184611412565b92915050565b6000806040838503121561145357611452611146565b5b600061146185828601611233565b925050602061147285828601611233565b9150509250929050565b60006020828403121561149257611491611146565b5b60006114a084828501611233565b91505092915050565b6114b281611354565b81146114bd57600080fd5b50565b6000813590506114cf816114a9565b92915050565b600073ffffffffffffffffffffffffffffffffffffffff82169050919050565b6000611500826114d5565b9050919050565b611510816114f5565b811461151b57600080fd5b50565b60008135905061152d81611507565b92915050565b600080fd5b60008083601f84011261154e5761154d611150565b5b8235905067ffffffffffffffff81111561156b5761156a611533565b5b6020830191508360018202830111156115875761158661120d565b5b9250929050565b6000806000806000806000806000806101008b8d0312156115b2576115b1611146565b5b60006115c08d828e016114c0565b9a505060206115d18d828e016114c0565b99505060406115e28d828e016114c0565b98505060606115f38d828e01611233565b97505060806116048d828e0161151e565b96505060a06116158d828e0161151e565b95505060c08b013567ffffffffffffffff8111156116365761163561114b565b5b6116428d828e01611538565b945094505060e08b013567ffffffffffffffff8111156116655761166461114b565b5b6116718d828e01611538565b92509250509295989b9194979a5092959850565b61168e81611212565b82525050565b61169d816114f5565b82525050565b600081519050919050565b600082825260208201905092915050565b60005b838110156116dd5780820151818401526020810190506116c2565b60008484015250505050565b60006116f4826116a3565b6116fe81856116ae565b935061170e8185602086016116bf565b61171781611155565b840191505092915050565b600061014082019050611738600083018d611412565b611745602083018c611412565b611752604083018b611412565b61175f606083018a611412565b61176c6080830189611685565b61177960a0830188611694565b61178660c0830187611694565b61179360e0830186611694565b8181036101008301526117a681856116e9565b90508181036101208301526117bb81846116e9565b90509b9a5050505050505050505050565b7f4e487b7100000000000000000000000000000000000000000000000000000000600052603260045260246000fd5b7f535741505f4e4f545f4143544956450000000000000000000000000000000000600082015250565b6000611831600f836116ae565b915061183c826117fb565b602082019050919050565b6000602082019050818103600083015261186081611824565b9050919050565b7f494e56414c49445f54494d450000000000000000000000000000000000000000600082015250565b600061189d600c836116ae565b91506118a882611867565b602082019050919050565b600060208201905081810360008301526118cc81611890565b9050919050565b60006020820190506118e86000830184611685565b92915050565b7f494e56414c49445f534543524554000000000000000000000000000000000000600082015250565b6000611924600e836116ae565b915061192f826118ee565b602082019050919050565b6000602082019050818103600083015261195381611917565b9050919050565b600060408201905061196f6000830185611694565b61197c6020830184611412565b9392505050565b60008115159050919050565b61199881611983565b81146119a357600080fd5b50565b6000815190506119b58161198f565b92915050565b6000602082840312156119d1576119d0611146565b5b60006119df848285016119a6565b91505092915050565b60006060820190506119fd6000830186611685565b611a0a6020830185611685565b611a176040830184611685565b949350505050565b6000604082019050611a346000830185611685565b611a416020830184611685565b9392505050565b7f494e56414c49445f414d4f554e54000000000000000000000000000000000000600082015250565b6000611a7e600e836116ae565b9150611a8982611a48565b602082019050919050565b60006020820190508181036000830152611aad81611a71565b9050919050565b6000606082019050611ac96000830186611694565b611ad66020830185611694565b611ae36040830184611412565b949350505050565b600060c082019050611b006000830189611694565b611b0d6020830188611694565b611b1a6040830187611412565b611b276060830186611685565b611b346080830185611412565b611b4160a0830184611694565b979650505050505050565b7f535741505f455849535453000000000000000000000000000000000000000000600082015250565b6000611b82600b836116ae565b9150611b8d82611b4c565b602082019050919050565b60006020820190508181036000830152611bb181611b75565b9050919050565b7f4e487b7100000000000000000000000000000000000000000000000000000000600052602260045260246000fd5b60006002820490506001821680611bff57607f821691505b602082108103611c1257611c11611bb8565b5b50919050565b60008190508160005260206000209050919050565b60006020601f8301049050919050565b600082821b905092915050565b600060088302611c7a7fffffffffffffffffffffffffffffffffffffffffffffffffffffffffffffffff82611c3d565b611c848683611c3d565b95508019841693508086168417925050509392505050565b6000819050919050565b6000611cc1611cbc611cb784611354565b611c9c565b611354565b9050919050565b6000819050919050565b611cdb83611ca6565b611cef611ce782611cc8565b848454611c4a565b825550505050565b600090565b611d04611cf7565b611d0f818484611cd2565b505050565b5b81811015611d3357611d28600082611cfc565b600181019050611d15565b5050565b601f821115611d7857611d4981611c18565b611d5284611c2d565b81016020851015611d61578190505b611d75611d6d85611c2d565b830182611d14565b50505b505050565b600082821c905092915050565b6000611d9b60001984600802611d7d565b1980831691505092915050565b6000611db48383611d8a565b9150826002028217905092915050565b611dcd826116a3565b67ffffffffffffffff811115611de657611de5611166565b5b611df08254611be7565b611dfb828285611d37565b600060209050601f831160018114611e2e5760008415611e1c578287015190505b611e268582611da8565b865550611e8e565b601f198416611e3c86611c18565b60005b82811015611e6457848901518255600182019150602085019450602081019050611e3f565b86831015611e815784890151611e7d601f891682611d8a565b8355505b6001600288020188555050505b505050505050565b82818337600083830152505050565b6000611eb183856116ae565b9350611ebe838584611e96565b611ec783611155565b840190509392505050565b600060e082019050611ee7600083018c611412565b611ef4602083018b611412565b611f01604083018a611412565b611f0e6060830189611685565b611f1b6080830188611685565b81810360a0830152611f2e818688611ea5565b905081810360c0830152611f43818486611ea5565b90509a995050505050505050505056fea2646970667358221220d3a58623906a9672a070d2721fa1b60634ce36ec3d2450e4da54b6e845a38c6b64736f6c63430008180033",
  "linkReferences": {},
  "deployedLinkReferences": {}
}